:020000040800F2
:1000000000040020B3010008050600086705000889
:1000100001060008F1020008B50600080000000013
:10002000000000000000000000000000B106000811
:10003000F5020008000000008D060008B306000865
:10004000D3010008D3010008D3010008D301000840
:10005000D3010008D3010008D3010008D301000830
:10006000D3010008D3010008D3010008D301000820
:10007000D3010008D3010008D3010008D301000810
:10008000D3010008D3010008D3010008D301000800
:10009000D3010008D3010008D301000801030008C0
:1000A000D3010008D3010008D3010008D3010008E0
:1000B000D3010008D3010008D3010008D3010008D0
:1000C000D3010008D3010008D3010008D3010008C0
:1000D000D3010008D3010008D3010008D3010008B0
:1000E000D3010008D3010008D3010008D3010008A0
:1000F000D3010008D3010008D3010008D301000890
:10010000D3010008D3010008D3010008D30100087F
:10011000D3010008D3010008D3010008D30100086F
:10012000D3010008D3010008D3010008D30100085F
:1001300000F002F800F02CF80AA090E8000C8244CD
:100140008344AAF10107DA4501D100F021F8AFF2AA
:10015000090EBAE80F0013F0010F18BFFB1A43F0A5
:1001600001031847680500007805000000230024FB
:1001700000250026103A28BF78C1FBD8520728BFB7
:1001800030C148BF0B6070471FB51FBD10B510BD13
:1001900000F035F81146FFF7F7FF00F08DFA00F098
:1001A00053F803B4FFF7F2FF03BC00F05BF8000064
:1001B00070470B4880470B4981F308880A4800477D
:1001C000FEE7FEE7FEE7FEE7FEE7FEE7FEE7FEE707
:1001D000FEE7FEE705480649044A064B7047000063
:1001E000B101000860020020310100086000002019
:1001F000600200206000002070477047704775461D
:1002000000F02CF8AE4605006946534620F0070082
:10021000854618B020B5FFF7DDFFBDE820404FF060
:1002200000064FF000074FF000084FF0000B21F0E0
:100230000701AC46ACE8C009ACE8C009ACE8C009AD
:10024000ACE8C0098D46704710B50446AFF3008096
:100250002046BDE81040FFF7A4BF000000487047EB
:100260000000002001491820ABBEFEE72600020076
:10027000704700001FB50121042000F009FA4FF477
:100280008070ADF80C0003208DF80E0048208DF82A
:100290000F0003A9154800F0D7F80121084600F027
:1002A000F7F90821002000F0AFF84FF480700190BA
:1002B00000208DF8080010208DF8090001208DF82D
:1002C0000A0001A800F044F84FF4C06000F0D4F92F
:1002D00017208DF8000001208DF803008DF8010033
:1002E0008DF80200684600F08FF91FBD000801403C
:1002F00000BFFEE7704700E0401E0028FCD17047B9
:1003000010B54FF4807000F00FF808B900F05AF9FA
:100310004FF4807000F002F810BD00000149086041
:100320007047000014040140014600200022074BE2
:100330001B6803EA0102054B14331B680B4013B121
:100340000AB1012000E000207047000000040140D5
:100350008179002946D02A49096802689143284AD0
:100360001160111D096802689143254A121D116030
:100370000179244A1144D1F800140268114302792A
:10038000204B1A44C2F800141D490831096802685C
:1003900091431B4A08321160111D0968026891439C
:1003A000174A0C321160417910290ED1111F0968CA
:1003B00002681143124A08321160111D096802686F
:1003C00011430F4A0C32116018E041790D4A114473
:1003D000D1F800140268114342790A4B1A44C2F85A
:1003E00000140BE00179074A1144D1F800140268A7
:1003F00091430279034B1A44C2F80014704700007D
:10040000000401400000014030B500228B071C0FA2
:100410000F2303FA04F20B4B8C1053F82430934350
:10042000084C8D1044F8253023468C1053F82430A6
:100430008C07240F00FA04F42343024C8D1044F877
:10044000253030BD080001402DE9F041024600256D
:100450000026002000230024002791F803C00CF0A0
:100460000F0591F803C00CF0100CBCF1000F03D085
:1004700091F802C04CEA050591F800C0BCF1000FEC
:1004800031D0146800202BE04FF0010C0CFA00F37F
:10049000B1F800C00CEA03069E4220D183004FF061
:1004A0000F0C0CFA03F7BC4305FA03FC4CEA0404F6
:1004B00091F803C0BCF1280F06D14FF0010C0CFAE3
:1004C00000FCC2F814C00AE091F803C0BCF1480F68
:1004D00005D14FF0010C0CFA00FCC2F810C0401C12
:1004E0000828D1D31460B1F800C0BCF1FF0F34DD8F
:1004F000546800202EE000F1080C4FF0010808FAC3
:100500000CF3B1F800C00CEA03069E4221D183002F
:100510004FF00F0C0CFA03F7BC4305FA03FC4CEA4E
:10052000040491F803C0BCF1280F05D100F1080CB8
:1005300008FA0CF8C2F8148091F803C0BCF1480F17
:1005400007D100F1080C4FF0010808FA0CF8C2F8C6
:100550001080401C0828CED35460BDE8F081416172
:1005600070470161704700BFFEE7000008B5012138
:10057000042000F08DF84FF48070ADF800000320E7
:100580008DF8020048208DF8030069460148FFF706
:100590005BFF08BD0008014008B50121042000F000
:1005A00077F80220ADF8000003208DF8020010203B
:1005B0008DF8030069460248FFF746FF009808BD22
:1005C0000008014010B54FF4A020FFF794FE00F0A2
:1005D00007F84FF4A020FFF78EFE00F009F810BDD9
:1005E00010B502210148FFF7BCFF10BD0008014013
:1005F00010B502210148FFF7B2FF10BD000801400D
:1006000000BFFEE77047000070B5002100230F22F5
:10061000C47804B3154C246804F4E064C4F5E064C1
:10062000210AC1F10403CA40447804FA03F1847832
:100630001440214309010E4C0678A155047804F0BA
:100640001F050124AC4005786D11AD0005F1E025D2
:10065000C5F8004109E0047804F01F050124AC400E
:10066000044D0678761145F8264070BD0CED00E08B
:1006700000E400E080E100E002490143024A116029
:10068000704700000000FA050CED00E07047000024
:1006900029B1064A92690243044B9A6104E0034A75
:1006A00092698243014B9A6170470000001002403A
:1006B0007047704700BFFEE708B5FFF76DFF009079
:1006C000FFF754FFFFF7D6FD00BFFEE7DC0600088A
:0C06D00000000020600200006C01000827
:0400000508000131BD
:00000001FF
