:020000040800F2
:10000000600200206D010008350400086D0300083F
:10001000310400081B0200089D05000800000000D4
:10002000000000000000000000000000590400086B
:100030001F020008000000003704000849050008FE
:100040008301000883010008830100088301000880
:100050008301000883010008830100088301000870
:100060008301000883010008830100088301000860
:100070008301000883010008830100088301000850
:100080008301000883010008830100088301000840
:100090008301000883010008830100088301000830
:1000A0008301000883010008830100088301000820
:1000B0008301000883010008830100088301000810
:1000C0008301000883010008830100088301000800
:1000D00083010008830100088301000883010008F0
:1000E00083010008830100088301000800F002F882
:1000F00000F02CF80AA090E8000C82448344AAF196
:100100000107DA4501D100F021F8AFF2090EBAE893
:100110000F0013F0010F18BFFB1A43F0010318473B
:1001200098040000A80400000023002400250026F5
:10013000103A28BF78C1FBD8520728BF30C148BF4A
:100140000B6070471FB51FBD10B510BD00F02BF838
:100150001146FFF7F7FF00F023FA00F049F803B467
:10016000FFF7F2FF03BC00F051F800000848004719
:10017000FEE7FEE7FEE7FEE7FEE7FEE7FEE7FEE757
:10018000FEE7FEE703480449024A044B70470000BB
:10019000ED000008600000206002002060000020E8
:1001A000704770477047754600F02CF8AE46050062
:1001B0006946534620F00700854618B020B5FFF782
:1001C000E1FFBDE820404FF000064FF000074FF080
:1001D00000084FF0000B21F00701AC46ACE8C00965
:1001E000ACE8C009ACE8C009ACE8C0098D4670476E
:1001F00010B50446AFF300802046BDE81040FFF77D
:10020000AEBF0000004870470000002001491820E0
:10021000ABBEFEE726000200704700BFFEE7704756
:1002200000E0401E0028FCD170472DE9F041024655
:1002300000250026002000230024002791F803C099
:100240000CF00F0591F803C00CF0100CBCF1000F7E
:1002500003D091F802C04CEA050591F800C0BCF14A
:10026000000F31D0146800202BE04FF0010C0CFA85
:1002700000F3B1F800C00CEA03069E4220D18300CF
:100280004FF00F0C0CFA03F7BC4305FA03FC4CEAE1
:10029000040491F803C0BCF1280F06D14FF0010C03
:1002A0000CFA00FCC2F814C00AE091F803C0BCF1DB
:1002B000480F05D14FF0010C0CFA00FCC2F810C039
:1002C000401C0828D1D31460B1F800C0BCF1FF0F66
:1002D00034DD546800202EE000F1080C4FF00108D6
:1002E00008FA0CF3B1F800C00CEA03069E4221D1D3
:1002F00083004FF00F0C0CFA03F7BC4305FA03FC24
:100300004CEA040491F803C0BCF1280F05D100F1B8
:10031000080C08FA0CF8C2F8148091F803C0BCF17C
:10032000480F07D100F1080C4FF0010808FA0CF84B
:10033000C2F81080401C0828CED35460BDE8F0817C
:100340000246002093680B400BB1012000E0002022
:10035000704702460020D3680B400BB1012000E03B
:1003600000207047416170470161704700BFFEE7A0
:1003700008B50121042000F05FF84FF48070ADF85B
:10038000000003208DF8020048208DF80300694624
:100390000148FFF74AFF08BD0008014010B50024DE
:1003A0004FF480710E48FFF7CBFFB8B94FF40070DF
:1003B000FFF736FF00BF4FF480710948FFF7C0FF19
:1003C0000028F8D002210648FFF7C3FF0446012C9D
:1003D00002D100F025F801E000F01AF810BD00008D
:1003E0000008014008B50121042000F025F8022092
:1003F000ADF8000003208DF8020010208DF80300F6
:1004000069460248FFF711FF009808BD0008014047
:1004100010B502210148FFF7A7FF10BD00080140F9
:1004200010B502210148FFF79DFF10BD00080140F3
:1004300000BFFEE77047704729B1064A9269024340
:10044000044B9A6104E0034A92698243014B9A612A
:100450007047000000100240704710B500F002F82D
:1004600010BD00000CB500200190009034480068D9
:1004700040F480303249086000BF3148006800F421
:10048000003000900198401C0190009818B9019824
:10049000B0F5A06FF1D12A48006800F4003010B127
:1004A0000120009001E0002000900098012844D134
:1004B0002448006840F0100022490860084600689F
:1004C00020F0030008600846006840F00200086061
:1004D0001B4840681A49486008464068486008461A
:1004E000406840F4806048600846406820F47C1012
:1004F00048600846406840F4E810486008460068D4
:1005000040F08070086000BF0D48006800F0007087
:100510000028F9D00A48406820F0030008494860E4
:100520000846406840F00200486000BF0448406848
:1005300000F00C000828F9D101E000BFFEE70CBD77
:1005400000100240002002407047000010B5104823
:10055000006840F001000E490860084640680D49F7
:1005600008400B494860084600680B4908400849A4
:1005700008600846006820F480200860084640684B
:1005800020F4FE00486000208860FFF766FF10BD81
:10059000001002400000FFF8FFFFF6FE00BFFEE77C
:1005A00008B5FFF7D3FFFFF71DFF0090FFF7E0FE50
:1005B00001E0FFF7F3FEFCE7C8050008000000209B
:0805C0006002000028010008A0
:04000005080000ED02
:00000001FF
