:020000040800F2
:1000000000040020B301000885040008C5030008AF
:100010008104000873020008AD040008000000001D
:10002000000000000000000000000000A90400081B
:10003000770200080000000087040008AB040008F5
:10004000D3010008D3010008D3010008D301000840
:10005000D3010008D3010008D3010008D301000830
:10006000D3010008D3010008D3010008D301000820
:10007000D3010008D3010008D3010008D301000810
:10008000D3010008D3010008D3010008D301000800
:10009000D3010008D3010008D3010008D3010008F0
:1000A000D3010008D3010008D3010008D3010008E0
:1000B000D3010008D3010008D3010008D3010008D0
:1000C000D3010008D3010008D3010008D3010008C0
:1000D000D3010008D3010008D3010008D3010008B0
:1000E000D3010008D3010008D3010008D3010008A0
:1000F000D3010008D3010008D3010008D301000890
:10010000D3010008D3010008D3010008D30100087F
:10011000D3010008D3010008D3010008D30100086F
:10012000D3010008D3010008D3010008D30100085F
:1001300000F002F800F02CF80AA090E8000C8244CD
:100140008344AAF10107DA4501D100F021F8AFF2AA
:10015000090EBAE80F0013F0010F18BFFB1A43F0A5
:10016000010318476003000070030000002300240F
:1001700000250026103A28BF78C1FBD8520728BFB7
:1001800030C148BF0B6070471FB51FBD10B510BD13
:1001900000F035F81146FFF7F7FF00F089F900F09D
:1001A00053F803B4FFF7F2FF03BC00F05BF8000064
:1001B00070470B4880470B4981F308880A4800477D
:1001C000FEE7FEE7FEE7FEE7FEE7FEE7FEE7FEE707
:1001D000FEE7FEE705480649044A064B7047000063
:1001E000B101000860020020310100086000002019
:1001F000600200206000002070477047704775461D
:1002000000F02CF8AE4605006946534620F0070082
:10021000854618B020B5FFF7DDFFBDE820404FF060
:1002200000064FF000074FF000084FF0000B21F0E0
:100230000701AC46ACE8C009ACE8C009ACE8C009AD
:10024000ACE8C0098D46704710B50446AFF3008096
:100250002046BDE81040FFF7A4BF000000487047EB
:100260000000002001491820ABBEFEE72600020076
:10027000704700BFFEE7704700E0401E0028FCD139
:1002800070472DE9F041024600250026002000239A
:100290000024002791F803C00CF00F0591F803C06B
:1002A0000CF0100CBCF1000F03D091F802C04CEA26
:1002B000050591F800C0BCF1000F31D01468002092
:1002C0002BE04FF0010C0CFA00F3B1F800C00CEA7F
:1002D00003069E4220D183004FF00F0C0CFA03F767
:1002E000BC4305FA03FC4CEA040491F803C0BCF1DA
:1002F000280F06D14FF0010C0CFA00FCC2F814C014
:100300000AE091F803C0BCF1480F05D14FF0010C91
:100310000CFA00FCC2F810C0401C0828D1D31460AD
:10032000B1F800C0BCF1FF0F34DD546800202EE0AE
:1003300000F1080C4FF0010808FA0CF3B1F800C006
:100340000CEA03069E4221D183004FF00F0C0CFAF9
:1003500003F7BC4305FA03FC4CEA040491F803C01C
:10036000BCF1280F05D100F1080C08FA0CF8C2F80E
:10037000148091F803C0BCF1480F07D100F1080CBC
:100380004FF0010808FA0CF8C2F81080401C082849
:10039000CED35460BDE8F0810246002093680B4044
:1003A0000BB1012000E00020704702460020D36816
:1003B0000B400BB1012000E0002070474161704705
:1003C0000161704700BFFEE708B50121042000F07D
:1003D0005BF84FF48070ADF8000003208DF8020048
:1003E00048208DF8030069460148FFF74AFF08BD21
:1003F0000008014010B54FF480710D48FFF7CCFFA5
:10040000A8B92020FFF738FF00BF4FF480710848DB
:10041000FFF7C2FF0028F8D002210548FFF7C5FF0B
:10042000012802D100F024F801E000F019F810BD15
:100430000008014008B50121042000F025F8022041
:10044000ADF8000003208DF8020010208DF80300A5
:1004500069460248FFF715FF009808BD00080140F3
:1004600010B502210148FFF7ABFF10BD00080140A5
:1004700010B502210148FFF7A1FF10BD000801409F
:1004800000BFFEE77047704729B1064A92690243F0
:10049000044B9A6104E0034A92698243014B9A61DA
:1004A00070470000001002407047704700BFFEE731
:1004B00008B5FFF7BFFF0090FFF786FF01E0FFF7E9
:1004C00099FFFCE7D404000800000020600200004F
:0404D0006C010008B3
:0400000508000131BD
:00000001FF
