:020000040800F2
:1000000000040020CF01000809040008B303000821
:10001000050400088F0200082B06000800000000FD
:10002000000000000000000000000000D5040008EF
:10003000930200080000000091040008D7040008A3
:10004000EF010008EF010008EF010008EF010008D0
:10005000EF010008EF010008EF010008EF010008C0
:10006000EF010008EF010008EF010008EF010008B0
:10007000EF010008EF010008EF010008EF010008A0
:10008000EF010008EF010008EF010008EF01000890
:10009000EF010008EF010008EF010008EF01000880
:1000A000EF010008EF010008EF010008EF01000870
:1000B000D9040008EF010008EF010008EF01000873
:1000C000EF010008EF010008EF010008EF01000850
:1000D000EF010008EF010008EF010008EF01000840
:1000E000EF010008EF010008EF010008EF01000830
:1000F000EF010008EF010008EF010008EF01000820
:10010000EF010008EF010008EF010008EF0100080F
:10011000EF010008EF010008EF010008EF010008FF
:10012000EF010008EF010008EF010008EF010008EF
:1001300000F002F800F03AF80AA090E8000C8244BF
:100140008344AAF10107DA4501D100F02FF8AFF29C
:10015000090EBAE80F0013F0010F18BFFB1A43F0A5
:1001600001031847DC040000FC040000103A24BF1F
:1001700078C878C1FAD8520724BF30C830C144BF0C
:1001800004680C607047000000230024002500264E
:10019000103A28BF78C1FBD8520728BF30C148BFEA
:1001A0000B6070471FB51FBD10B510BD00F035F8CE
:1001B0001146FFF7F7FF00F03AFA00F053F803B4E6
:1001C000FFF7F2FF03BC00F05BF8000070470B483C
:1001D00080470B4981F308880A480047FEE7FEE79D
:1001E000FEE7FEE7FEE7FEE7FEE7FEE7FEE7FEE7E7
:1001F00005480649044A064B70470000CD01000837
:100200006802002031010008680000206802002018
:1002100068000020704770477047754600F02CF862
:10022000AE4605006946534620F00700854618B0E3
:1002300020B5FFF7DDFFBDE820404FF000064FF08E
:1002400000074FF000084FF0000B21F00701AC460B
:10025000ACE8C009ACE8C009ACE8C009ACE8C0092A
:100260008D46704710B50446AFF300802046BDE8C8
:100270001040FFF7A4BF00000048704704000020B2
:1002800001491820ABBEFEE726000200704700BF00
:10029000FEE770472DE9F0410246002500260020C8
:1002A00000230024002791F803C00CF00F0591F8FB
:1002B00003C00CF0100CBCF1000F03D091F802C089
:1002C0004CEA050591F800C0BCF1000F31D014686C
:1002D00000202BE04FF0010C0CFA00F3B1F800C045
:1002E0000CEA03069E4220D183004FF00F0C0CFA5B
:1002F00003F7BC4305FA03FC4CEA040491F803C07D
:10030000BCF1280F06D14FF0010C0CFA00FCC2F82A
:1003100014C00AE091F803C0BCF1480F05D14FF0BA
:10032000010C0CFA00FCC2F810C0401C0828D1D304
:100330001460B1F800C0BCF1FF0F34DD5468002038
:100340002EE000F1080C4FF0010808FA0CF3B1F8A8
:1003500000C00CEA03069E4221D183004FF00F0C2F
:100360000CFA03F7BC4305FA03FC4CEA040491F8C9
:1003700003C0BCF1280F05D100F1080C08FA0CF8F5
:10038000C2F8148091F803C0BCF1480F07D100F106
:10039000080C4FF0010808FA0CF8C2F81080401C55
:1003A0000828CED35460BDE8F081416170470161F7
:1003B000704700BFFEE7000008B50121042000F0EF
:1003C00079F80220ADF8000003208DF8020010201B
:1003D0008DF8030069460248FFF75CFF009808BDEE
:1003E0000008014010B502210148FFF7E0FF10BDF1
:1003F0000008014010B502210148FFF7D6FF10BDEB
:100400000008014000BFFEE77047000070B5002102
:1004100000230F22C47804B3154C246804F4E0646C
:10042000C4F5E064210AC1F10403CA40447804FA27
:1004300003F184781440214309010E4C0678A1553C
:10044000047804F01F050124AC4005786D11AD005F
:1004500005F1E025C5F8004109E0047804F01F0526
:100460000124AC40044D0678761145F8264070BD55
:100470000CED00E000E400E080E100E0024901430F
:10048000024A1160704700000000FA050CED00E020
:100490007047000029B1064AD2690243044BDA6171
:1004A00004E0034AD2698243014BDA6170470000DD
:1004B0000010024029B1064A92690243044B9A6136
:1004C00004E0034A92698243014B9A61704700003D
:1004D000001002407047704710B50E480068401C7D
:1004E0000C4908600121880700F025F8012810D187
:1004F0000849086800EBD0714910A0EB410111B91F
:10050000FFF770FF01E0FFF775FF0121880700F09A
:1005100003F810BD00000020CA430282704721B1D9
:10052000028842F00102028004E0028840F2FE33B9
:100530001A400280704730B5024600200023002494
:10054000158A05EA0103958905EA010413B10CB186
:10055000012000E0002030BD1AB183890B43838164
:1005600002E083898B438381704701894FF6F872DB
:100570001140018170470000028802F08F02028062
:10058000CA884B881A4303881A4302808A88828566
:100590000A880285054A904202D0054A904201D15C
:1005A0000A7A02860122828270470000002C0140F4
:1005B000003401401FB501210846FFF76BFF4FF0E3
:1005C0008040FFF7D2FF0020ADF80A00ADF806002A
:1005D00042F20F70ADF8080041F61F40ADF804007C
:1005E00000208DF80C0001A94FF08040FFF7C4FFF8
:1005F000012211469007FFF7AFFF4FF4A060FFF70D
:100600003DFF1C208DF8000001208DF80300022022
:100610008DF8010001208DF802006846FFF7F6FE14
:1006200001218807FFF77BFF1FBD00BFFEE708B56C
:10063000FFF7C0FFFFF7C0FE009000BFFEE700001D
:100640006006000800000020040000006C010008A3
:10065000640600080400002064020000880100080D
:040660000000000096
:0400000508000131BD
:00000001FF
